:020000040000fa
:080000000001040000000000f3
:020000040000fa
:040008005804000098
:020000040000fa
:04000c009a04000052
:020000040000fa
:04001000da0400000e
:020000040000fa
:04001400780400006c
:020000040000fa
:04001800ba04000026
:020000040000fa
:04001c00fa040000e2
:020000040000fa
:04002000fa040000de
:020000040000fa
:04002400fa040000da
:020000040000fa
:04002800fa040000d6
:020000040000fa
:04002c00fa040000d2
:020000040000fa
:04003000fa040000ce
:020000040000fa
:04003400fa040000ca
:020000040000fa
:04003800fa040000c6
:020000040000fa
:04003c00fa040000c2
:020000040000fa
:04004000fa040000be
:020000040000fa
:04004400fa040000ba
:020000040000fa
:04004800fa040000b6
:020000040000fa
:04004c00fa040000b2
:020000040000fa
:04005000fa040000ae
:020000040000fa
:04005400fa040000aa
:020000040000fa
:04005800fa040000a6
:020000040000fa
:04005c00fa040000a2
:020000040000fa
:04006000fa0400009e
:020000040000fa
:04006400fa0400009a
:020000040000fa
:04006800fa04000096
:020000040000fa
:04006c000802000086
:020000040000fa
:04007000fa0400008e
:020000040000fa
:04007400fa0400008a
:020000040000fa
:04007800fa04000086
:020000040000fa
:04007c00fa04000082
:020000040000fa
:04008000fa0400007e
:020000040000fa
:04008400fa0400007a
:020000040000fa
:04008800fa04000076
:020000040000fa
:04008c00fa04000072
:020000040000fa
:04009000fa0400006e
:020000040000fa
:04009400fa0400006a
:020000040000fa
:04009800fa04000066
:020000040000fa
:04009c00fa04000062
:020000040000fa
:0400a000fa0400005e
:020000040000fa
:0400a400fa0400005a
:020000040000fa
:0400a800fa04000056
:020000040000fa
:0400ac00fa04000052
:020000040000fa
:0400b000fa0400004e
:020000040000fa
:0400b400fa0400004a
:020000040000fa
:0400b800fa04000046
:020000040000fa
:0400bc00fa04000042
:020000040000fa
:0400c000fa0400003e
:020000040000fa
:0400c400fa0400003a
:020000040000fa
:0400c800fa04000036
:020000040000fa
:0400cc00fa04000032
:020000040000fa
:0400d000fa0400002e
:020000040000fa
:0400d400fa0400002a
:020000040000fa
:0400d800fa04000026
:020000040000fa
:0400dc00fa04000022
:020000040000fa
:0400e000fa0400001e
:020000040000fa
:0400e400fa0400001a
:020000040000fa
:0400e800fa04000016
:020000040000fa
:0400ec00fa04000012
:020000040000fa
:0400f000fa0400000e
:020000040000fa
:0400f400fa0400000a
:020000040000fa
:0400f800fa04000006
:020000040000fa
:0400fc00fa04000002
:020000040000fa
:04010000fa040000fd
:020000040000fa
:04010400fa040000f9
:020000040000fa
:04010800fa040000f5
:020000040000fa
:04010c00fa040000f1
:020000040000fa
:04011000fa040000ed
:020000040000fa
:04011400fa040000e9
:020000040000fa
:04011800fa040000e5
:020000040000fa
:04011c00fa040000e1
:020000040000fa
:04012000fa040000dd
:020000040000fa
:04012400fa040000d9
:020000040000fa
:04012800fa040000d5
:020000040000fa
:04012c00fa040000d1
:020000040000fa
:04013000fa040000cd
:020000040000fa
:04013400fa040000c9
:020000040000fa
:04013800fa040000c5
:020000040000fa
:04013c00fa040000c1
:020000040000fa
:04014000fa040000bd
:020000040000fa
:04014400fa040000b9
:020000040000fa
:04014800fa040000b5
:020000040000fa
:04014c00fa040000b1
:020000040000fa
:04015000fa040000ad
:020000040000fa
:04015400fa040000a9
:020000040000fa
:04015800fa040000a5
:020000040000fa
:04015c00fa040000a1
:020000040000fa
:04016000fa0400009d
:020000040000fa
:04016400fa04000099
:020000040000fa
:04016800fa04000095
:020000040000fa
:04016c00fa04000091
:020000040000fa
:04017000fa0400008d
:020000040000fa
:04017400fa04000089
:020000040000fa
:04017800fa04000085
:020000040000fa
:04017c00fa04000081
:020000040000fa
:04018000fa0400007d
:020000040000fa
:04018400fa04000079
:020000040000fa
:04018800fa04000075
:020000040000fa
:04018c00fa04000071
:020000040000fa
:04019000fa0400006d
:020000040000fa
:04019400fa04000069
:020000040000fa
:04019800fa04000065
:020000040000fa
:04019c00fa04000061
:020000040000fa
:0401a000fa0400005d
:020000040000fa
:0401a400fa04000059
:020000040000fa
:0401a800fa04000055
:020000040000fa
:0401ac00fa04000051
:020000040000fa
:0401b000fa0400004d
:020000040000fa
:0401b400fa04000049
:020000040000fa
:0401b800fa04000045
:020000040000fa
:0401bc00fa04000041
:020000040000fa
:0401c000fa0400003d
:020000040000fa
:0401c400fa04000039
:020000040000fa
:0401c800fa04000035
:020000040000fa
:0401cc00fa04000031
:020000040000fa
:0401d000fa0400002d
:020000040000fa
:0401d400fa04000029
:020000040000fa
:0401d800fa04000025
:020000040000fa
:0401dc00fa04000021
:020000040000fa
:0401e000fa0400001d
:020000040000fa
:0401e400fa04000019
:020000040000fa
:0401e800fa04000015
:020000040000fa
:0401ec00fa04000011
:020000040000fa
:0401f000fa0400000d
:020000040000fa
:0401f400fa04000009
:020000040000fa
:0401f800fa04000005
:020000040000fa
:0401fc00fa04000001
:020000040000fa
:10020000ef8620000e7f24000e0188000000000011
:10021000000020000000e000020032000001200089
:100220002002880014000700080207000000e00018
:1002300003003a0000e5280001002000020037001a
:100240000000200001002000810f7000010032003a
:1002500014000700000020000000e000020032004f
:10026000000002000000000086870200000000007d
:100270000040da000000fe004440a9000001200018
:100280000000e00003003200002020009001880000
:100290004440a800000006008a1f78008b1f7800e9
:1002a00000000600a1028800800478000000eb0036
:1002b0001f003700e284440054a0b4009905ba003e
:1002c000e284440054a0b4009906ba00e2844400d9
:1002d00054a0b4000006eb00476fde00fd07b2003b
:1002e000ae018800636ce10003003a00eaff0700fa
:1002f0000000eb000e003700606ce10008003a00df
:10030000004deb000a05e800020039003420ec0043
:100310000af0a0008b05e900f9ff3e000400370059
:100320006168e100010032000086eb000b0007006d
:1003300019c7ba001905ba000e04e00003003a001c
:100340000a00e000dbff3a0000000600fe07b200f2
:10035000ae0288008a047800f5ff37000cd0a300b5
:10036000e20f4d001c00390089027800354dba00bb
:100370000a05e800020039003420ec000af0a00071
:100380008b05e9000f003200254dba000a05e80090
:10039000020039003420ec000af0a0008b05e900cf
:1003a000080032000c00e0000600320015cdba0053
:1003b0000a05e800020039003420ec000af0a00031
:1003c0008b05e9008984e80054a0b4000b00e0002c
:1003d000e2ff3a00000006009902ba00055d7800cd
:1003e0008b05e900f7ff3200c82ade00055d7800c2
:1003f0008b05e900f3ff32000c00e000f1ff320052
:1004000019ddba00eeff37002e8d04000000000059
:100410003600f800809fbe00829fbe00849fbe0011
:10042000869fbe000000fa008a20a900f124800007
:1004300000082000008060000000e000080032009a
:100440009ee4a9000828ef00704080002000900082
:100450008000eb00010878000e28ef000d01370046
:10046000404080008000eb00b2002000030020002c
:10047000820f5000838f5800fc003e000060010096
:100480000b00370039003700750037009c0037003b
:10049000f3003700c8003700d9003700f0003700fc
:1004a000db003700f1003700340037005000370020
:1004b0000080200020009000620060000000e0004a
:1004c000f3003a0000802000100090007040880087
:1004d0000080200010009000104078000ae8b7006b
:1004e0000080200010009000100090006040880004
:1004f0000080200010009000e600400000802000f6
:1005000011009800008020009000900000862000dc
:10051000808f500003003a0000802000a185200059
:100520001100980000802000a00090000100a100b0
:1005300021009800008020009000900000802000a2
:1005400010007800808f500004003a0000802000e6
:10055000a00090000110a000210098009a04a800bb
:100560002000200040408800ca0037009a24a800dc
:100570002000200040408800c6003700f1248000a1
:1005800000002800008060000000e0000800320049
:1005900000802000604090008040e8000080200043
:1005a000614098004000200000440700b900370077
:1005b000804080008000d100f00f200000806000ab
:1005c000b024880080408000610060000040780016
:1005d0000004e00003003200b0002000404088002a
:1005e000ac0037003000200040408800a9003700f0
:1005f000f124800000002800008060000000e0007e
:100600000800320000802000604090008040e80038
:10061000008020006140980040002000e343070074
:100620009c0037009a24a800804080004800de002b
:10063000e6006000000f200001007000804088008c
:10064000804080000000a0008040880010c0b300ff
:1006500012e8b70020002000404088008d003700dd
:1006600012c8bf00e14f50000a0032006040800015
:1006700010007800804088006040800020009000da
:10068000a0408800604080002040900016e8b7003d
:10069000010037001268ef0081408000f00f200059
:1006a000808f500009003600804080004800de0046
:1006b000e6006000000f200001007000b0248800f8
:1006c000a000200040408800720037008040800079
:1006d000b024880080408000610060000040780005
:1006e0000004e00003003200500020004040880079
:1006f0006800370030002000404088006500370067
:10070000f124800000002800008060000000e0006c
:100710000900320000802000604090008040e80026
:1007200000802000614098009fe4a9005000200054
:100730009e4307005700370016c8bf008080fb00ab
:100740008100e900cf08de00814078000040e90028
:1007500016e8b7000104e00010003200604080009d
:1007600066004000604088000ac8bf000040e90001
:100770000ae8b7000ac8bf000004e00003003a001e
:100780002000200089430700420037009a24a80077
:1007900020002000404088003e003700a04080003c
:1007a000904078008180fb00b12488000000e800c0
:1007b000a040880037003700f124800000002800a6
:1007c000008060000000e00009003200008020008e
:1007d000604090008040e800008020006140980068
:1007e00040002000714307009fe4a9002900370062
:1007f0009a64a8008000200040408800250037004f
:1008000080002000404088009a64a8002100370042
:10081000a0408000a1248000814078000148780039
:100820000000e800a040880016c8bf000040e900b2
:1008300016e8b70016c8bf000004e000040032004c
:100840009aa4a90060002000404088000200370000
:100850009aa4a800444307009a84a8000d0037001a
:1008600020002000514307000a00370000802000cc
:10087000604090008040e8000080200061409800c7
:10088000600020004943070000000000010037001d
:10089000000000000080fa004f03be004f02be00bf
:1008a0004f01be004f00be003600f90000400600b8
:1008b0003600f800809fbe00829fbe00849fbe006d
:1008c000869fbe000000fa008020a9000000eb0017
:1008d0002b4507000080fa004f03be004f02be0008
:1008e0004f01be004f00be003600f9000040060078
:1008f0003600f800809fbe00829fbe00849fbe002d
:10090000869fbe000000fa00224507008040a90033
:10091000100020001a4507000080fa004f03be00b7
:100920004f02be004f01be004f00be003600f9006e
:10093000004006003600f800809fbe00829fbe0087
:10094000849fbe00869fbe000000fa008060a90060
:10095000200020000a4507000080fa004f03be0077
:100960004f02be004f01be004f00be003600f9002e
:10097000004006003600f800809fbe00829fbe0047
:10098000849fbe00869fbe000000fa008080a90000
:1009900030002000fa4407000080fa004f03be0038
:1009a0004f02be004f01be004f00be003600f900ee
:1009b000004006003600f800809fbe00829fbe0007
:1009c000849fbe00869fbe000000fa008600a9003a
:1009d00070002000ea4407000080fa004f03be00c8
:1009e0004f02be004f01be004f00be003600f900ae
:1009f000004006000040da000000fe000800fa0097
:100a0000100798002107980032079800be00900058
:100a1000010f7800070037002e009000104078008a
:100a2000ae0090008100e80021079800b443070061
:100a30001e0fe9001e0078000000e000f6ff3a00fb
:100a40003e0090000080fa00000006000000050053
:100a5000839f68000100e00002003d00600010007c
:100a6000e08018000300e00002003d00600111007a
:100a7000e0811900400007004f00e00002003b0049
:100a800060001000e0801800000006000001be00b9
:100a9000240007000470a70003f0a1006509b1005d
:100aa000160032000d0035006828e1000600350010
:100ab000f0ff2f00f1ff27000300e00013003b00d0
:100ac000010028000000050000004000818048006f
:100ad0008502e900fcff3a0008003700f88f420069
:100ae00002003c008000eb00000005008100d10006
:100af0000080d3008502e800fcff3a000300e0001c
:100b000002003b0060001000e080180000000600ba
:100b10004f89de00820178007c0337006011b80045
:100b20008a033700c70ade00f107b200f50fb200f2
:100b300008003200e1cf4200020032000170a00044
:100b400024000500810f7000010032000408050038
:100b500044000500810f700002003a0014000500f7
:100b60008502e9000000400081c04800fcff3b0016
:100b70000170a000240005006022b80006022000d9
:100b80000000d0008180d2000482d2008582d20091
:100b90000000a0000202520083825a0003003100cc
:100ba0000202420083824a000000a1000603e9001d
:100bb000f3ff3a000000060007f8270007836100f2
:100bc0000638e10004003a00f7072000878361003f
:100bd0008703710001003a0003f0a200889fbe0065
:100be0008a9fbe008c9fbe00470ade000480a100e1
:100bf000c71ade000580a1000700280007856000f5
:100c000087856100f70f20000720e1009e00320079
:100c10000728e1009c003200010678000400e00093
:100c2000b4003200f7072000878060000170a00048
:100c30000500e000c0003200f70720008781610056
:100c40000370a000050652000f003a000b50e100af
:100c50000b0032000308e10002003a000200e1004c
:100c60007e003200020450008384580004003100ea
:100c70000001fd008101fd008402fd008a05fd00e8
:100c80006044b800210037000520e10005003d0068
:100c90000001fd008101fd008402fd008a05fd00c8
:100ca000050652007a60e100050035000170a100e0
:100cb0004722dd00848070008a8070006300370066
:100cc0006044b800ef02660007ff2f0007066600c9
:100cd0000500e00006003400f08312008714dd00f8
:100ce0000511de00071bdd00060171008519de001d
:100cf0007060e10005003500090478008204780086
:100d0000030178008001eb00700656000b50e100f3
:100d100003003a00020040008380480004003700ce
:100d200060041400e0841c00020058008380580016
:100d30000188a300060032008100d1000080d300aa
:100d40008984d3000884d3000402e8002700370018
:100d50000178a30025003a000100e0000300320002
:100d60008186cf00698656000a0037008c0020007b
:100d70000000e00004003a000900780088047800d0
:100d80000004eb00700252008086cf000d06460082
:100d90000c06e9007060e100060035008000780074
:100da00009007800880478000004eb007006560003
:100db000700252000c00e0000c0034008c08dd00d2
:100dc000f00316000703de00868070000c00dd00d3
:100dd000074bde00060070008c4cdd000743de0090
:100de000868474000c44dd000c0252006120e10096
:100df0002000350061016000070028008781640041
:100e0000f7ff270087836400070374000300e000f6
:100e10000600320082037300040032000000e80084
:100e2000e08048000188a3000e003a00f70f200080
:100e30000720e1004a003d000170a1004722dd00cb
:100e4000810072008a8070000000be004f06be0064
:100e50004f05be004f04be00000006006000b80051
:100e6000faff37008100d1000080d3000402e800bf
:100e7000eeff37000401780089017400a10107002a
:100e80008a807000f1ff3700f70107000702780041
:100e90000001fd008101fd00f301070087027800d9
:100ea000850372000778a300040032000001fd00f2
:100eb0008101fd0006020700e4ff370085036200a0
:100ec0000768a300080032000b50e1000300320065
:100ed000f0ff2f00f1ff2700dcff37000001fd00cd
:100ee0008101fd00d9ff37000468a300d7ff32005d
:100ef000faff3700f8ff2700888360000b003a00f4
:100f00000000e00009003a0083036400828373005c
:100f1000020032000200be00ccff37000b50e1009f
:100f2000ceff3a000200be00c8ff370014002000c8
:100f3000810064003eff3700f8ff270088836100ce
:100f400004003a000200e00002003a008c00780041
:100f5000beff3700150020008301640039ff370011
:100f600001f827000000200081007500b7ff37005e
:100f7000889fbe008a9fbe008c9fbe001b00200081
:100f80000202be000586680006002800060666000c
:100f90004709de00f20fb200820032000243e8008f
:100fa00080003200c729de00f30fb2007d0032005e
:100fb0000343e8007b003200f107b2000170a0009b
:100fc000f507b2000570a000c708dd004903de0088
:100fd000868070004700dd00c72add004923de005f
:100fe000868272004722dd00030551000403500091
:100ff00085835800030031000000400081804800d4
:101000000a05e9008c1f78008a9fbe00040050008a
:10101000858058000402420085824a00000040009a
:10102000818048000005eb000004be006033b8007a
:101030000406be000d48e100560031001100090011
:101040004dccd8000c01b8000d02b80084814100dd
:1010500060824a008283530003045c0084845c0045
:1010600060055d000a00e00025003a008005780078
:101070000d40e10049003100880078000700780049
:10108000110009004d88d8000c01b8000d02b8000d
:101090008481410060824a006003110083835b0009
:1010a00004045c00e0845c000900e00021003a00d8
:1010b0004f01be000300e0002b003200e30160009e
:1010c000070673008c81710001003200640070001b
:1010d0004200de004e5edd000c007000c258de00f3
:1010e00001e0a00083010700cf017800818071003a
:1010f0004f06be004f05be004f04be0000000600b4
:101100008c8343000d044c00e0844c0060054d00ce
:101110000000e9000a00e000d4ff32008c834300a5
:101120000d044c00e0844c0060054d000000e90017
:10113000ceff37000c0343008d834b0060044c004e
:10114000e0844c000000e9000900e000d8ff320014
:101150000c0343008d834b0060044c00e0844c0082
:101160000000e900d2ff37004200de004e5edd00e5
:101170000c007000c258de0001e0a000cf01780032
:101180000300e000daff320060001000e080180089
:10119000d7ff3700f0ff2f00aaff3700f0ff2f0026
:1011a000b9ff37000404be002f010700870678004e
:1011b0000004fd008104fd002b0107000783660089
:1011c0000678a300030032000960a7000800be00f3
:1011d0002c0037000d78a300020032000800be008a
:1011e000280037000778a30026003a0001f0a1008c
:1011f00009f0a1000668a30003003200f1ff2700f8
:10120000f0ff2f00baff37000d68a3000300320083
:101210000800be008c807000b5ff37000768a3008f
:1012200007003a000648a30003003200f1ff270040
:10123000f0ff2f00aeff37000d48a300030032007f
:101240006000b8008c807000a9ff37000748a30039
:101250000400320001f82700000020008c8070009c
:10126000a3ff3700760107000004fd008104fd00a4
:1012700002057800720107000802be008a017800aa
:1012800059ff37000160a0001202200022418800af
:1012900097ff37000100e000120032000500e00077
:1012a00010003200889fbe008a9fbe008c9fbe0047
:1012b0000006eb0001f8a3000300320060001000fc
:1012c000e08018000cf0a00005f8a3000300320035
:1012d00060021200e0821a000cf0a2008005eb0010
:1012e00041ff37006000b80002000500038368007a
:1012f0000700280007036300470ade000480a100fe
:10130000c71ade000580a100f70f20000720e100ca
:10131000420032000728e10040003200889fbe00f2
:101320008a9fbe008c1f7800f107b200f307b2005d
:101330000400e000640032000170a0000500e0003d
:10134000680032000370a00085054200eb07b10081
:101350000204b8000302b8008484440060854a0097
:10136000020ab800848444000a854a00030ab800cf
:1013700004054500040033000804d0008984d2002d
:101380000a85d2008b05e9006158e1003d00350077
:10139000021020000901610003082000898161001a
:1013a000f70720008783640008867300c84cde00be
:1013b000c853dd00878474004855de000300e00058
:1013c0000600320082037600040032008904e8003f
:1013d00060054d000a88a3000c003a00f70f2000ba
:1013e0000758e10044003d000a70a100c75ddd0020
:1013f0000a8575008a007300090078004f0678009e
:101400004f05be004f04be00000006000a05d100d3
:101410008984d3008b05e800f0ff3700881f78002f
:101420000604780090000700070278000001fd0024
:101430008101fd008c00070087027800850372009f
:101440000778a300050032000001fd008101fd00c6
:101450009f0007004f04780000000600850372001b
:101460000748a30003003200f0ff2f00f1ff270020
:10147000f8ff37000000200001f827008880700086
:10148000f4ff3700880178004848dd008081710052
:101490004848de00c850dd0001007000c850de0082
:1014a000060478000b0178001600070088807000a1
:1014b000d2ff37000500e0000500320017002000d1
:1014c0003a0007009dff370081037000f9ff3a00e2
:1014d000860078004f0678004f05be004f04be001e
:1014e0000000050083037100f9ff3200270020008f
:1014f0002e00070094ff370001f827008680700057
:10150000f4ff37000100e000260032006101110005
:101510007810e10023003c006022b8007010e10068
:101520000400350080027800010078008000eb00a4
:10153000700151000200e000090034007003110046
:10154000062add00822ade008603dd008782720023
:101550000200de00860bdd00070070008208de005e
:1015600084817100f4ff270004826200848171008d
:1015700004002800848262006102600005f0a60079
:101580000000060004827100070032000000e8003d
:10159000e0804800000006000002be006000b800c5
:1015a000efff37006000b80000000600889fbe0013
:1015b0000004eb006138e10016003a000100e00091
:1015c00008003a00c800de004800dd008800200066
:1015d0000100e00003003a00c800de004800dd0022
:1015e000680444008184cf00e9845400060034007c
:1015f0008908dd00f08314008703de008780700017
:101600000900dd0009044400610214004f04be001b
:10161000000006000300e00008003a00c811de00e8
:101620004811dd00880020000300e00003003a00bc
:10163000c811de004811dd00680444008384cf0037
:10164000e9845400060034008919dd00f083140099
:101650008713de00878171000911dd000904440051
:10166000e1021400e9ff37002700200001f0a70085
:1016700017002000470bde00f60fb2000400320016
:101680000643e8000a0032004702b30000000600eb
:1016900001037800f607b2000603700002003a006a
:1016a0000703b300000006008702b3000000060035
:1016b00001037800f607b200060370000200320052
:1016c0000770a000000006000760a00000000600f0
:1016d0000478a300040032000578a3000300320060
:1016e0000168a30001003a000200be000160a000f2
:1016f0000000060081017000270032008002eb002c
:1017000001f8a3000300320060001000e080180020
:1017100015002000f40720000202420020003400df
:10172000f703200087036000060420000003630025
:1017300002082000000161004700de00c909dd0049
:1017400000807100c708de000600e00008003200db
:1017500087037100060032001000b0000180b00065
:101760000188a30002003200c108de000402e80084
:10177000f107b200f30f20000320e10003003d0059
:101780004722dd00810072002900370001f82700a0
:101790000000eb00260037006000b80000000600e3
:1017a000680212007f20e100020034006000b800ef
:1017b0001f0037006011b8007020e1000400350000
:1017c00080017800010078008000eb007002520078
:1017d0000400e00009003400f00312000719dd00e6
:1017e0008419de000703dd00868171000400de003d
:1017f000070bdd00060070008408de00f7ff2700fd
:1018000083836300870371000600280003036300dd
:10181000070032000700e00003003a0061016000a9
:1018200002817300020032001000b0000180b0009d
:101830000500a6000000060001f0a0000000060060
:101840004f0ade004709de00f107b200f20fb200d6
:101850000b003200f207b1000170a000c708dd00e4
:10186000c901de00838070004700dd000400a6008f
:101870000000060060001000e08018000000060074
:10188000810f700001003a00000006008182cf0045
:101890000500e00010003e008082cf00ee82420092
:1018a0007028e1000400390007003e008000780045
:1018b0000000eb000e003700708312008600de008f
:1018c0000500dd000a003700708352008600dd004d
:1018d0000000eb0006003700e28252008508dd00c0
:1018e000708312000603de00868070000500dd00b4
:1018f0007507b0000501ea000400a600000006001c
:1019000060001000e080180000000600881f7800ca
:10191000030478000300e00007003d0060001000b1
:10192000e080180060011900e081190002003b000e
:1019300001f02d00030037000400070008f0a700a5
:1019400001f0a0004f04780000000600889fbe0050
:101950008a9fbe0000827000040271000482710040
:10196000260032000004be000200be006011b80074
:101970006b092000950220000182cf000a00390087
:101980000541b1000082cf00070039000541b100d8
:101990000982cf00040039000541b1000882cf0060
:1019a000010039000541b100054252001200320029
:1019b0000a003b0082817100610164008100d10056
:1019c0000080d3008984d3000884d3008b05e8000d
:1019d0000442e800f7ff3a0007003700080444001b
:1019e00089844c0000004800818048008b05e90094
:1019f0000442e900f9ff3a00030007004f05be006a
:101a00004f04be00000006008100200061805500e8
:101a10000b003d000b00200061fe2f000100e100e3
:101a20001d00340082817100610164008904d100cd
:101a30000884d3000000e800faff3a00710020009b
:101a400061006400030070000200600009003200c1
:101a500061044400e0844c000988a50005003200c0
:101a60008b05e8006808e10002003a008904d10013
:101a70000884d300f20f20000258e10005003d0069
:101a8000c75ddd00f907b2008980750008007800a5
:101a9000000006000bf827008b007800000005000e
:101aa000f2874700889fbe008a9fbe008c9fbe00c1
:101ab0008e1f78000003be000400200005f82f00f0
:101ac0000002420081824a00f2ff2f00f3f7270054
:101ad000820f5200838f5a001b0036000001400025
:101ae00081814800e00f5100e08f590006003a0064
:101af0000001be00fdfd07000001be000000200047
:101b000001f82b0008003700e00f5000e08f58006c
:101b100007003d0012022000624388000001be0061
:101b200025fc07006011b80011fd0700790037009f
:101b30000200200003c02400ecfd07000003be00eb
:101b40007efe2f000a003700820f5000838f58005e
:101b500070003e006000b8000200200003f823007f
:101b6000820f5300838f5b006a0032000007eb0096
:101b7000d0b02f00a1042000060340008783480056
:101b8000fe07b10087007800f107b2000600780078
:101b9000324f200053f323000000410081804900b0
:101ba0000200200003f82300d6b79f00e7b79f008c
:101bb00001fc07000004be00020020000300240016
:101bc00006fc07000001be000800be00e8fc07009c
:101bd0000002be000001be00f4b79f0085bf9f0059
:101be000c2fd07000006be000001be00bffd0700e9
:101bf0000005be000200200003f023000800be0024
:101c0000bafd07000801be00b8fd0700b0b79f008d
:101c1000c1b79f005fb39700efb39700473bde006b
:101c200006004700cf80de00b9fb070090b79f0099
:101c3000a1b79f00e29e2e0013e923000a00be0018
:101c4000aafd0700a2aa2a00a3f22300e3fb0700d3
:101c50000001be000c00be00a4fd07000006be008f
:101c600062e2290083e723000a00be009ffd07000f
:101c700032e12c00c3ec2300d8fb07000001be00ba
:101c80000a00be0099fd07000001be000c00be0066
:101c9000d2fb07000001be003fb09700cfb0970015
:101ca000cefb07000001be007fb297008fba9700fd
:101cb0000400be008dfd07000005be00127d2f0050
:101cc000737123001fb09700afb0970087fd070026
:101cd0000001be000a00be00c0fb07003fb1970034
:101ce000cfb19700b4fb07000801be00bbfb0700a3
:101cf0000004be000218270013f323001fb0970052
:101d0000afb0970079fd07000001be000800be00db
:101d1000b2fb07004f0778004f06be004f05be001c
:101d20004f04be002f01b1000000060080007800c3
:101d3000040037003104e00002003a0000005100c6
:101d400000000600010178000108a300f9ff3a0035
:101d50008101780031017800f4ef2f000202420087
:101d60000281ea0002016200040828000401610007
:101d7000f7ff320083007800010178003104e000b1
:0c1d8000fdff3a000000510000000600ca
:020000040000fa
:101d8c00530d00000a540000000d00000a00000072
:101d9c002d300000323500000d0a0000000000005c
:020000040000fa
:101dac001400fa0090c2b3001ae8b70010c0b300d8
:101dbc00004f7800f0c0b300104798001ac8bf005d
:101dcc000080fb00838120000001780021c0b3005b
:101ddc000e007800ff3d0700cc3b07001ac8bf007f
:101dec000080fb00838120000001780021c0b3003b
:101dfc000e007800103e0700c43b07000040eb00cb
:101e0c00004f78000040eb00104798000040eb00ba
:101e1c00204798001ac8bf000080fb008381200077
:101e2c000001780031c0b3000e007800e93d0700d6
:101e3c00b63b07000040eb00004f78000040eb0081
:101e4c001047980010c0b300204798001ac8bf0074
:101e5c000080fb00838120000001780031c0b300ba
:101e6c000e007800db3d0700a83b07000040eb00ac
:101e7c00004f780050ceb300104798001ac8bf002e
:101e8c000080fb00838120000001780021c0b3009a
:101e9c000e007800cf3d07009c3b07001ac8bf001e
:101eac000080fb00838120000001780011c0b3008a
:101ebc000e007800e03d0700943b07000040eb006b
:101ecc00004f7800e0c2b300104798001ac8bf005a
:101edc000080fb00838120000001780021c0b3004a
:101eec000e007800bb3d0700883b07001ac8bf00f6
:101efc000080fb00838120000001780011c0b3003a
:101f0c000e007800cc3d0700803b07000040eb0042
:101f1c00004f7800e0c2b3001047980010c0b30027
:101f2c00204798001ac8bf000080fb008381200066
:101f3c000001780031c0b3000e007800a53d070009
:101f4c00723b07000040eb00004f780060c0b3000c
:101f5c00104798001ac8bf000080fb008381200046
:101f6c000001780021c0b3000e007800993d0700f5
:101f7c00663b07001ac8bf000080fb00838120006d
:101f8c000001780021c0b3000e007800aa3d0700c4
:101f9c005e3b07000040eb00004f7800e0cdb30043
:101fac00104798001ac8bf000080fb0083812000f6
:101fbc000001780021c0b3000e007800853d0700b9
:101fcc00523b07001ac8bf000080fb008381200031
:101fdc000001780021c0b3000e007800963d070088
:101fec004a3b07000040eb00004f780040c2b300b2
:101ffc0010479800a0c0b300204798000040eb00a9
:10200c00304798001ac8bf000080fb008381200075
:10201c000001780041c0b3000e0078006d3d070050
:10202c003a3b07000040eb00004f780010c3b300b0
:10203c001047980020c0b300204798001ac8bf0072
:10204c000080fb00838120000001780031c0b300c8
:10205c000e0078005f3d07002c3b07000040eb00b2
:10206c00004f780060c3b3001047980080c0b300e5
:10207c00204798001ac8bf000080fb008381200015
:10208c000001780031c0b3000e007800513d07000c
:10209c001e3b07000040eb00004f780070c3b300fc
:1020ac001047980000c1b300204798001ac8bf0021
:1020bc000080fb00838120000001780031c0b30058
:1020cc000e007800433d0700103b07000040eb007a
:1020dc00004f780090c3b3001047980010c0b300b5
:1020ec00204798001ac8bf000080fb0083812000a5
:1020fc000001780031c0b3000e007800353d0700b8
:10210c00023b07000040eb00004f7800e0c3b30037
:10211c001047980000c0eb00204798001ac8bf0079
:10212c000080fb00838120000001780031c0b300e7
:10213c000e007800273d0700f43a07000040eb0042
:10214c00004f7800f0c3b300104798000040eb003c
:10215c00204798001ac8bf000080fb008381200034
:10216c000001780031c0b3000e007800193d070063
:10217c00e63a07000040eb00004f780000c4b300c3
:10218c001047980020c0b300204798001ac8bf0021
:10219c000080fb00838120000001780031c0b30077
:1021ac000e0078000b3d0700d83a07000040eb000a
:1021bc00004f780000c5b300104798000040eb00ba
:1021cc00204798000040eb00304798001ac8bf0029
:1021dc000080fb00838120000001780041c0b30027
:1021ec000e007800fb3c0700c83a07000040eb00eb
:1021fc00004f780020c5b300104798000040eb005a
:10220c00204798000040eb00304798001ac8bf00e8
:10221c000080fb00838120000001780041c0b300e6
:10222c000e007800eb3c0700b83a07000040eb00ca
:10223c00004f780070c5b3001047980080c3b300fe
:10224c00204798001ac8bf000080fb008381200043
:10225c000001780031c0b3000e007800dd3c0700af
:10226c00aa3a07000040eb00004f780040c6b300cc
:10227c001047980010c0b3002047980080c6b300e8
:10228c00304798001ac8bf000080fb0083812000f3
:10229c000001780041c0b3000e007800cd3c07006f
:1022ac009a3a07000040eb00004f780060c6b3007c
:1022bc00104798000040eb002047980000ccb3007a
:1022cc00304798001ac8bf000080fb0083812000b3
:1022dc000001780041c0b3000e007800bd3c07003f
:1022ec008a3a07000040eb00004f780010c7b3009b
:1022fc001047980010c0b300204798001ac8bf00c0
:10230c000080fb00838120000001780031c0b30005
:10231c000e007800af3c07007c3a07000040eb0051
:10232c00004f7800c0c7b3001047980010c0b3002e
:10233c00204798001ac8bf000080fb008381200052
:10234c000001780031c0b3000e007800a13c0700fa
:10235c006e3a07000040eb00004f7800e0c7b30076
:10236c001047980020c0b300204798001ac8bf003f
:10237c000080fb00838120000001780031c0b30095
:10238c000e007800933c0700603a07000040eb0019
:10239c00004f780020c8b300104798000040eb00b5
:1023ac00204798001ac8bf000080fb0083812000e2
:1023bc000001780031c0b3000e007800853c0700a6
:1023cc00523a07000040eb00004f780070c7b30092
:1023dc001047980010c0b300204798001ac8bf00df
:1023ec000080fb00838120000001780031c0b30025
:1023fc000e007800773c0700443a07000040eb00e1
:10240c00004f780010c8b30010479800b0c8b30054
:10241c00204798001ac8bf000080fb008381200071
:10242c000001780031c0b3000e007800693c070051
:10243c00363a07000040eb00004f780040c5b3006f
:10244c001047980080ccb300204798000040eb0068
:10245c00304798001ac8bf000080fb008381200021
:10246c000001780041c0b3000e007800593c070011
:10247c00263a07000040eb00004f7800f0c4b30090
:10248c001047980020c0b300204798001ac8bf001e
:10249c000080fb00838120000001780031c0b30074
:1024ac000e0078004b3c0700183a07000040eb0088
:1024bc00004f780000c6b300104798001ac8bf0040
:1024cc000080fb00838120000001780021c0b30054
:1024dc000e0078003f3c07000c3a07001ac8bf00fa
:1024ec000080fb00838120000001780011c0b30044
:1024fc000e007800503c0700043a07000040eb0047
:10250c00004f7800e0c5b300104798001ac8bf0010
:10251c000080fb00838120000001780021c0b30003
:10252c000e0078002b3c0700f83907001ac8bf00d2
:10253c000080fb00838120000001780021c0b300e3
:10254c000e0078003c3c0700f03907000040eb001f
:10255c00004f780000c6b30010479800f0c0b300dd
:10256c00204798001ac8bf000080fb008381200020
:10257c000001780031c0b3000e007800153c070054
:10258c00e23907000040eb00004f780030c6b30082
:10259c0010479800d0c0b300204798001ac8bf005d
:1025ac000080fb00838120000001780031c0b30063
:1025bc000e007800073c0700d43907000040eb0000
:1025cc00004f780090c6b3001047980080cbb30042
:1025dc00204798001ac8bf000080fb0083812000b0
:1025ec000001780031c0b3000e007800f93b070001
:1025fc00c63907000040eb00004f780080c7b300dd
:10260c0010479800f0c0b300204798001ac8bf00cc
:10261c000080fb00838120000001780031c0b300f2
:10262c000e007800eb3b0700b83907000040eb00c8
:10263c00004f780090c7b30010479800d0c0b3008b
:10264c00204798001ac8bf000080fb00838120003f
:10265c000001780031c0b3000e007800dd3b0700ac
:10266c00aa3907000040eb00004f7800a0c7b30068
:10267c0010479800e0c0b300204798001ac8bf006c
:10268c000080fb00838120000001780031c0b30082
:10269c000e007800cf3b07009c3907000040eb0090
:1026ac00004f7800b0c7b30010479800e0c0b300eb
:1026bc00204798001ac8bf000080fb0083812000cf
:1026cc000001780031c0b3000e007800c13b070058
:1026dc008e3907000040eb00004f780000c6b300b5
:1026ec00104798001ac8bf000080fb0083812000af
:1026fc000001780021c0b3000e007800b53b070044
:10270c00823907001ac8bf000080fb0083812000bb
:10271c000001780011c0b3000e007800c63b070022
:10272c007a3907000040eb00004f7800b0c4b300ca
:10273c0010479800a0c0b300204798001ac8bf00eb
:10274c000080fb00838120000001780031c0b300c1
:10275c000e0078009f3b07006c3907000040eb002f
:10276c00004f7800a0c5b300104798000040eb0064
:10277c00204798000040eb00304798001ac8bf0073
:10278c000080fb00838120000001780041c0b30071
:10279c000e0078008f3b07005c3907000040eb000f
:1027ac00004f7800e0c5b3001047980010c0b3008c
:1027bc002047980070ccb300304798001ac8bf006f
:1027cc000080fb00838120000001780041c0b30031
:1027dc000e0078007f3b07004c3907000040eb00ef
:1027ec00004f780030c6b300104798001ac8bf00dd
:1027fc000080fb00838120000001780021c0b30021
:10280c000e007800733b0700403907001ac8bf0060
:10281c000080fb00838120000001780011c0b30010
:10282c000e007800843b0700383907000040eb00ad
:10283c00004f7800c0c5b300104798000040eb0073
:10284c00204798000040eb00304798001ac8bf00a2
:10285c000080fb00838120000001780041c0b300a0
:10286c000e0078005b3b0700283907000040eb00a6
:10287c00004f780010c6b3001047980010c0b3008a
:10288c002047980040ceb300304798001ac8bf00cc
:10289c000080fb00838120000001780041c0b30060
:1028ac000e0078004b3b0700183907000040eb0086
:1028bc00004f780000c6b300104798001ac8bf003c
:1028cc000080fb00838120000001780021c0b30050
:1028dc000e0078003f3b07000c3907001ac8bf00f8
:1028ec000080fb00838120000001780011c0b30040
:1028fc000e007800503b0700043907000040eb0045
:10290c00004f7800b0c4b30010479800a0c0b300cb
:10291c00204798001ac8bf000080fb00838120006c
:10292c000001780031c0b3000e007800293b07008d
:10293c00f63807000040eb00004f7800a0c5b3004c
:10294c00104798000040eb00204798000040eb0037
:10295c00304798001ac8bf000080fb00838120001c
:10296c000001780041c0b3000e007800193b07004d
:10297c00e63807000040eb00004f7800e0c5b300dc
:10298c00104798000040eb002047980080ceb30021
:10299c00304798001ac8bf000080fb0083812000dc
:1029ac000001780041c0b3000e007800093b07001d
:1029bc00d63807000040eb00004f780030c6b3005b
:1029cc00104798001ac8bf000080fb0083812000cc
:1029dc000001780021c0b3000e007800fd3a07001a
:1029ec00ca3807001ac8bf000080fb008381200092
:1029fc000001780011c0b3000e0078000e3b0700f8
:102a0c00c23807000040eb00004f7800c0c5b3008f
:102a1c00104798000040eb00204798000040eb0066
:102a2c00304798001ac8bf000080fb00838120004b
:102a3c000001780041c0b3000e007800e53a0700b1
:102a4c00b23807000040eb00004f780010c6b3000e
:102a5c001047980010c0b3002047980040c8b3003e
:102a6c00304798001ac8bf000080fb00838120000b
:102a7c000001780041c0b3000e007800d53a070081
:102a8c00a23807000040eb00004f780020c2b300d2
:102a9c00104798001ac8bf000080fb0083812000fb
:102aac000001780021c0b3000e007800c93a07007d
:102abc00963807001ac8bf000080fb0083812000f5
:102acc000001780021c0b3000e007800da3a07004c
:102adc008e3807000040eb00004f7800e0c1b300d7
:102aec00104798000040eb0020479800c0c5b30089
:102afc00304798001ac8bf000080fb00838120007b
:102b0c000001780041c0b3000e007800b13a070014
:102b1c007e3807000040eb00004f780000c6b30081
:102b2c00104798001ac8bf000080fb00838120006a
:102b3c000001780021c0b3000e007800a53a070010
:102b4c00723807001ac8bf000080fb008381200088
:102b5c000001780011c0b3000e007800b63a0700ef
:102b6c006a3807000040eb00004f7800e0c5b30066
:102b7c00104798001ac8bf000080fb00838120001a
:102b8c000001780021c0b3000e007800913a0700d4
:102b9c005e3807001ac8bf000080fb00838120004c
:102bac000001780021c0b3000e007800a23a0700a3
:102bbc00563807000040eb00004f780000c6b30009
:102bcc0010479800f0c0b300204798001ac8bf0007
:102bdc000080fb00838120000001780031c0b3002d
:102bec000e0078007b3a0700483807000040eb00e5
:102bfc00004f780030c6b30010479800d0c0b30027
:102c0c00204798001ac8bf000080fb008381200079
:102c1c000001780031c0b3000e0078006d3a070057
:102c2c003a3807000040eb00004f780090c6b30024
:102c3c001047980080cbb300204798001ac8bf00fb
:102c4c000080fb00838120000001780031c0b300bc
:102c5c000e0078005f3a07002c3807000040eb00ac
:102c6c00004f780080c7b30010479800f0c0b30045
:102c7c00204798001ac8bf000080fb008381200009
:102c8c000001780031c0b3000e007800513a070003
:102c9c001e3807000040eb00004f780090c7b300cf
:102cac0010479800d0c0b300204798001ac8bf0046
:102cbc000080fb00838120000001780031c0b3004c
:102ccc000e007800433a0700103807000040eb0074
:102cdc00004f7800a0c7b30010479800e0c0b300c5
:102cec00204798001ac8bf000080fb008381200099
:102cfc000001780031c0b3000e007800353a0700af
:102d0c00023807000040eb00004f7800b0c7b3005a
:102d1c0010479800e0c0b300204798001ac8bf00c5
:102d2c000080fb00838120000001780031c0b300db
:102d3c000e007800273a0700f43707000040eb003c
:102d4c00004f780000c6b300104798001ac8bf00a7
:102d5c000080fb00838120000001780021c0b300bb
:102d6c000e0078001b3a0700e83707001ac8bf00ae
:102d7c000080fb00838120000001780011c0b300ab
:102d8c000e0078002c3a0700e03707000040eb00fb
:102d9c00004f7800b0c4b30010479800a0c0b30037
:102dac00204798001ac8bf000080fb0083812000d8
:102dbc000001780031c0b3000e007800053a07001e
:102dcc00d23707000040eb00004f7800a0c5b300dd
:102ddc00104798000040eb00204798000040eb00a3
:102dec00304798001ac8bf000080fb008381200088
:102dfc000001780041c0b3000e007800f5390700df
:102e0c00c23707000040eb00004f7800e0c5b3006c
:102e1c00104798000040eb002047980080ceb3008c
:102e2c00304798001ac8bf000080fb008381200047
:102e3c000001780041c0b3000e007800e5390700ae
:102e4c00b23707000040eb00004f780030c6b300eb
:102e5c00104798001ac8bf000080fb008381200037
:102e6c000001780021c0b3000e007800d9390700aa
:102e7c00a63707001ac8bf000080fb008381200022
:102e8c000001780011c0b3000e007800ea39070089
:102e9c009e3707000040eb00004f7800c0c5b30020
:102eac00104798000040eb00204798000040eb00d2
:102ebc00304798001ac8bf000080fb0083812000b7
:102ecc000001780041c0b3000e007800c139070042
:102edc008e3707000040eb00004f780010c6b3009f
:102eec001047980010c0b3002047980040c8b300aa
:102efc00304798001ac8bf000080fb008381200077
:102f0c000001780041c0b3000e007800b139070011
:102f1c007e3707000040eb00004f780000c6b3007e
:102f2c00104798001ac8bf000080fb008381200066
:102f3c000001780021c0b3000e007800a53907000d
:102f4c00723707001ac8bf000080fb008381200085
:102f5c000001780011c0b3000e007800b6390700ec
:102f6c006a3707000040eb00004f7800b0c4b30094
:102f7c0010479800a0c0b300204798001ac8bf00a3
:102f8c000080fb00838120000001780031c0b30079
:102f9c000e0078008f3907005c3707000040eb000b
:102fac00004f7800a0c5b300104798000040eb001c
:102fbc00204798000040eb00304798001ac8bf002b
:102fcc000080fb00838120000001780041c0b30029
:102fdc000e0078007f3907004c3707000040eb00eb
:102fec00004f7800e0c5b300104798000040eb009c
:102ffc002047980080ceb300304798001ac8bf0015
:10300c000080fb00838120000001780041c0b300e8
:10301c000e0078006f3907003c3707000040eb00ca
:10302c00004f780030c6b300104798001ac8bf0094
:10303c000080fb00838120000001780021c0b300d8
:10304c000e00780063390700303707001ac8bf003c
:10305c000080fb00838120000001780011c0b300c8
:10306c000e00780074390700283707000040eb0089
:10307c00004f7800c0c5b300104798000040eb002b
:10308c00204798000040eb00304798001ac8bf005a
:10309c000080fb00838120000001780041c0b30058
:1030ac000e0078004b390700183707000040eb0082
:1030bc00004f780010c6b3001047980010c0b30042
:1030cc002047980040c8b300304798001ac8bf008a
:1030dc000080fb00838120000001780041c0b30018
:1030ec000e0078003b390700083707000040eb0062
:1030fc00004f7800c0c6b300104798000040eb00aa
:10310c00204798000040eb003047980070c0b30097
:10311c0040479800a0c3b300504798001ac8bf009e
:10312c000080fb00838120000001780061c0b300a7
:10313c000e00780027390700f43607000040eb003a
:10314c00004f780060c8b3001047980010c0b3005f
:10315c00204798001ac8bf000080fb008381200024
:10316c000001780031c0b3000e0078001939070057
:10317c00e63607000040eb00004f780070c8b30043
:10318c001047980000c4b300204798001ac8bf002d
:10319c000080fb00838120000001780031c0b30067
:1031ac000e0078000b390700d83607000040eb0002
:1031bc00004f780010c3b300104798001ac8bf0026
:1031cc000080fb00838120000001780021c0b30047
:1031dc000e007800ff380700cc3607001ac8bf0075
:1031ec000080fb00838120000001780011c0b30037
:1031fc000e00780010390700c43607000040eb00c1
:10320c00004f780010c3b300104798001ac8bf00d5
:10321c000080fb00838120000001780021c0b300f6
:10322c000e007800eb380700b83607001ac8bf004c
:10323c000080fb00838120000001780011c0b300e6
:10324c000e007800fc380700b03607000040eb0099
:10325c00004f780010c3b300104798001ac8bf0085
:10326c000080fb00838120000001780021c0b300a6
:10327c000e007800d7380700a43607001ac8bf0024
:10328c000080fb00838120000001780011c0b30096
:10329c000e007800e83807009c3607000040eb0071
:1032ac00004f780010c3b300104798001ac8bf0035
:1032bc000080fb00838120000001780021c0b30056
:1032cc000e007800c3380700903607001ac8bf00fc
:1032dc000080fb00838120000001780011c0b30046
:1032ec000e007800d4380700883607000040eb0049
:1032fc00004f780010c3b300104798001ac8bf00e5
:10330c000080fb00838120000001780021c0b30005
:10331c000e007800af3807007c3607001ac8bf00d3
:10332c000080fb00838120000001780011c0b300f5
:10333c000e007800c0380700743607000040eb0020
:10334c00004f780010c3b300104798001ac8bf0094
:10335c000080fb00838120000001780021c0b300b5
:10336c000e0078009b380700683607001ac8bf00ab
:10337c000080fb00838120000001780011c0b300a5
:10338c000e007800ac380700603607000040eb00f8
:10339c00004f780010c3b300104798001ac8bf0044
:1033ac000080fb00838120000001780021c0b30065
:1033bc000e00780087380700543607001ac8bf0083
:1033cc000080fb00838120000001780011c0b30055
:1033dc000e007800983807004c3607000040eb00d0
:1033ec00004f780010c3b300104798001ac8bf00f4
:1033fc000080fb00838120000001780021c0b30015
:10340c000e00780073380700403607001ac8bf005a
:10341c000080fb00838120000001780011c0b30004
:10342c000e00780084380700383607000040eb00a7
:10343c00004f780010c3b300104798001ac8bf00a3
:10344c000080fb00838120000001780021c0b300c4
:10345c000e0078005f3807002c3607001ac8bf0032
:10346c000080fb00838120000001780011c0b300b4
:10347c000e00780070380700243607000040eb007f
:10348c00004f780010c3b300104798001ac8bf0053
:10349c000080fb00838120000001780021c0b30074
:1034ac000e0078004b380700183607001ac8bf000a
:1034bc000080fb00838120000001780011c0b30064
:1034cc000e0078005c380700103607000040eb0057
:1034dc00004f780010c3b300104798001ac8bf0003
:1034ec000080fb00838120000001780021c0b30024
:1034fc000e00780037380700043607001ac8bf00e2
:10350c000080fb00838120000001780011c0b30013
:10351c000e00780048380700fc3507000040eb002f
:10352c00004f780010c3b300104798001ac8bf00b2
:10353c000080fb00838120000001780021c0b300d3
:10354c000e00780023380700f03507001ac8bf00ba
:10355c000080fb00838120000001780011c0b300c3
:10356c000e00780034380700e83507000040eb0007
:10357c00004f780010c3b300104798001ac8bf0062
:10358c000080fb00838120000001780021c0b30083
:10359c000e0078000f380700dc3507001ac8bf0092
:1035ac000080fb00838120000001780011c0b30073
:1035bc000e00780020380700d43507000040eb00df
:1035cc00004f780010c3b300104798001ac8bf0012
:1035dc000080fb00838120000001780021c0b30033
:1035ec000e007800fb370700c83507001ac8bf006b
:1035fc000080fb00838120000001780011c0b30023
:10360c000e0078000c380700c03507000040eb00b6
:10361c00004f780010c3b300104798001ac8bf00c1
:10362c000080fb00838120000001780021c0b300e2
:10363c000e007800e7370700b43507001ac8bf0042
:10364c000080fb00838120000001780011c0b300d2
:10365c000e007800f8370700ac3507000040eb008f
:10366c00004f780010c3b300104798001ac8bf0071
:10367c000080fb00838120000001780021c0b30092
:10368c000e007800d3370700a03507001ac8bf001a
:10369c000080fb00838120000001780011c0b30082
:1036ac000e007800e4370700983507000040eb0067
:1036bc00004f780010c3b300104798001ac8bf0021
:1036cc000080fb00838120000001780021c0b30042
:1036dc000e007800bf3707008c3507001ac8bf00f2
:1036ec000080fb00838120000001780011c0b30032
:1036fc000e007800d0370700843507000040eb003f
:10370c00004f780010c3b300104798001ac8bf00d0
:10371c000080fb00838120000001780021c0b300f1
:10372c000e007800ab370700783507001ac8bf00c9
:10373c000080fb00838120000001780011c0b300e1
:10374c000e007800bc370700703507000040eb0016
:10375c00004f780010c3b300104798001ac8bf0080
:10376c000080fb00838120000001780021c0b300a1
:10377c000e00780097370700643507001ac8bf00a1
:10378c000080fb00838120000001780011c0b30091
:10379c000e007800a83707005c3507000040eb00ee
:1037ac00004f780010c3b300104798001ac8bf0030
:1037bc000080fb00838120000001780021c0b30051
:1037cc000e00780083370700503507001ac8bf0079
:1037dc000080fb00838120000001780011c0b30041
:1037ec000e00780094370700483507000040eb00c6
:1037fc00004f780010c3b300104798001ac8bf00e0
:10380c000080fb00838120000001780021c0b30000
:10381c000e0078006f3707003c3507001ac8bf0050
:10382c000080fb00838120000001780011c0b300f0
:10383c000e00780080370700343507000040eb009d
:10384c00004f780010c3b300104798001ac8bf008f
:10385c000080fb00838120000001780021c0b300b0
:10386c000e0078005b370700283507001ac8bf0028
:10387c000080fb00838120000001780011c0b300a0
:10388c000e0078006c370700203507000040eb0075
:10389c00004f780010c3b300104798001ac8bf003f
:1038ac000080fb00838120000001780021c0b30060
:1038bc000e00780047370700143507001ac8bf0000
:1038cc000080fb00838120000001780011c0b30050
:1038dc000e007800583707000c3507000040eb004d
:1038ec00004f780010c3b300104798001ac8bf00ef
:1038fc000080fb00838120000001780021c0b30010
:10390c000e00780033370700003507001ac8bf00d7
:10391c000080fb00838120000001780011c0b300ff
:10392c000e00780044370700f83407000040eb0025
:10393c00004f780010c3b300104798001ac8bf009e
:10394c000080fb00838120000001780021c0b300bf
:10395c000e0078001f370700ec3407001ac8bf00b0
:10396c000080fb00838120000001780011c0b300af
:10397c000e00780030370700e43407000040eb00fd
:10398c00004f780010c3b300104798001ac8bf004e
:10399c000080fb00838120000001780021c0b3006f
:1039ac000e0078000b370700d83407001ac8bf0088
:1039bc000080fb00838120000001780011c0b3005f
:1039cc000e0078001c370700d03407000040eb00d5
:1039dc00004f780010c3b300104798001ac8bf00fe
:1039ec000080fb00838120000001780021c0b3001f
:1039fc000e007800f7360700c43407001ac8bf0061
:103a0c000080fb00838120000001780011c0b3000e
:103a1c000e00780008370700bc3407000040eb00ac
:103a2c00004f780010c3b300104798001ac8bf00ad
:103a3c000080fb00838120000001780021c0b300ce
:103a4c000e007800e3360700b03407001ac8bf0038
:103a5c000080fb00838120000001780011c0b300be
:103a6c000e007800f4360700a83407000040eb0085
:103a7c00004f780010c3b300104798001ac8bf005d
:103a8c000080fb00838120000001780021c0b3007e
:103a9c000e007800cf3607009c3407001ac8bf0010
:103aac000080fb00838120000001780011c0b3006e
:103abc000e007800e0360700943407000040eb005d
:103acc00004f780010c3b300104798001ac8bf000d
:103adc000080fb00838120000001780021c0b3002e
:103aec000e007800bb360700883407001ac8bf00e8
:103afc000080fb00838120000001780011c0b3001e
:103b0c000e007800cc360700803407000040eb0034
:103b1c00004f780010c3b300104798001ac8bf00bc
:103b2c000080fb00838120000001780021c0b300dd
:103b3c000e007800a7360700743407001ac8bf00bf
:103b4c000080fb00838120000001780011c0b300cd
:103b5c000e007800b83607006c3407000040eb000c
:103b6c00004f780010c3b300104798001ac8bf006c
:103b7c000080fb00838120000001780021c0b3008d
:103b8c000e00780093360700603407001ac8bf0097
:103b9c000080fb00838120000001780011c0b3007d
:103bac000e007800a4360700583407000040eb00e4
:103bbc00004f780010c3b300104798001ac8bf001c
:103bcc000080fb00838120000001780021c0b3003d
:103bdc000e0078007f3607004c3407001ac8bf006f
:103bec000080fb00838120000001780011c0b3002d
:103bfc000e00780090360700443407000040eb00bc
:103c0c00004f780010c3b300104798001ac8bf00cb
:103c1c000080fb00838120000001780021c0b300ec
:103c2c000e0078006b360700383407001ac8bf0046
:103c3c000080fb00838120000001780011c0b300dc
:103c4c000e0078007c360700303407000040eb0093
:103c5c00004f780010c3b300104798001ac8bf007b
:103c6c000080fb00838120000001780021c0b3009c
:103c7c000e00780057360700243407001ac8bf001e
:103c8c000080fb00838120000001780011c0b3008c
:103c9c000e007800683607001c3407000040eb006b
:103cac00004f780010c3b300104798001ac8bf002b
:103cbc000080fb00838120000001780021c0b3004c
:103ccc000e00780043360700103407001ac8bf00f6
:103cdc000080fb00838120000001780011c0b3003c
:103cec000e00780054360700083407000040eb0043
:103cfc00004f780010c3b300104798001ac8bf00db
:103d0c000080fb00838120000001780021c0b300fb
:103d1c000e0078002f360700fc3307001ac8bf00ce
:103d2c000080fb00838120000001780011c0b300eb
:103d3c000e00780040360700f43307000040eb001b
:103d4c00004f780010c3b300104798001ac8bf008a
:103d5c000080fb00838120000001780021c0b300ab
:103d6c000e0078001b360700e83307001ac8bf00a6
:103d7c000080fb00838120000001780011c0b3009b
:103d8c000e0078002c360700e03307000040eb00f3
:103d9c00004f780010c3b300104798001ac8bf003a
:103dac000080fb00838120000001780021c0b3005b
:103dbc000e00780007360700d43307001ac8bf007e
:103dcc000080fb00838120000001780011c0b3004b
:103ddc000e00780018360700cc3307000040eb00cb
:103dec00004f780010c3b300104798001ac8bf00ea
:103dfc000080fb00838120000001780021c0b3000b
:103e0c000e007800f3350700c03307001ac8bf0056
:103e1c000080fb00838120000001780011c0b300fa
:103e2c000e00780004360700b83307000040eb00a2
:103e3c00004f780010c3b300104798001ac8bf0099
:103e4c000080fb00838120000001780021c0b300ba
:103e5c000e007800df350700ac3307001ac8bf002e
:103e6c000080fb00838120000001780011c0b300aa
:103e7c000e007800f0350700a43307000040eb007b
:103e8c00004f780010c3b300104798001ac8bf0049
:103e9c000080fb00838120000001780021c0b3006a
:103eac000e007800cb350700983307001ac8bf0006
:103ebc000080fb00838120000001780011c0b3005a
:103ecc000e007800dc350700903307000040eb0053
:103edc00004f780010c3b300104798001ac8bf00f9
:103eec000080fb00838120000001780021c0b3001a
:103efc000e007800b7350700843307001ac8bf00de
:103f0c000080fb00838120000001780011c0b30009
:103f1c000e007800c83507007c3307000040eb002a
:103f2c00004f780010c3b300104798001ac8bf00a8
:103f3c000080fb00838120000001780021c0b300c9
:103f4c000e007800a3350700703307001ac8bf00b5
:103f5c000080fb00838120000001780011c0b300b9
:103f6c000e007800b4350700683307000040eb0002
:103f7c00004f780010c3b300104798001ac8bf0058
:103f8c000080fb00838120000001780021c0b30079
:103f9c000e0078008f3507005c3307001ac8bf008d
:103fac000080fb00838120000001780011c0b30069
:103fbc000e007800a0350700543307000040eb00da
:103fcc00004f780010c3b300104798001ac8bf0008
:103fdc000080fb00838120000001780021c0b30029
:103fec000e0078007b350700483307001ac8bf0065
:103ffc000080fb00838120000001780011c0b30019
:10400c000e0078008c350700403307000040eb00b1
:10401c00004f780010c3b300104798001ac8bf00b7
:10402c000080fb00838120000001780021c0b300d8
:10403c000e00780067350700343307001ac8bf003c
:10404c000080fb00838120000001780011c0b300c8
:10405c000e007800783507002c3307000040eb0089
:10406c00004f780010c3b300104798001ac8bf0067
:10407c000080fb00838120000001780021c0b30088
:10408c000e00780053350700203307001ac8bf0014
:10409c000080fb00838120000001780011c0b30078
:1040ac000e00780064350700183307000040eb0061
:1040bc00004f780010c3b300104798001ac8bf0017
:1040cc000080fb00838120000001780021c0b30038
:1040dc000e0078003f3507000c3307001ac8bf00ec
:1040ec000080fb00838120000001780011c0b30028
:1040fc000e00780050350700043307000040eb0039
:10410c00004f780010c3b300104798001ac8bf00c6
:10411c000080fb00838120000001780021c0b300e7
:10412c000e0078002b350700f83207001ac8bf00c4
:10413c000080fb00838120000001780011c0b300d7
:10414c000e0078003c350700f03207000040eb0011
:10415c00004f780010c3b300104798001ac8bf0076
:10416c000080fb00838120000001780021c0b30097
:10417c000e00780017350700e43207001ac8bf009c
:10418c000080fb00838120000001780011c0b30087
:10419c000e00780028350700dc3207000040eb00e9
:1041ac00004f780010c3b300104798001ac8bf0026
:1041bc000080fb00838120000001780021c0b30047
:1041cc000e00780003350700d03207001ac8bf0074
:1041dc000080fb00838120000001780011c0b30037
:1041ec000e00780014350700c83207000040eb00c1
:1041fc00004f780010c3b300104798001ac8bf00d6
:10420c000080fb00838120000001780021c0b300f6
:10421c000e007800ef340700bc3207001ac8bf004c
:10422c000080fb00838120000001780011c0b300e6
:10423c000e00780000350700b43207000040eb0098
:10424c00004f780010c3b300104798001ac8bf0085
:10425c000080fb00838120000001780021c0b300a6
:10426c000e007800db340700a83207001ac8bf0024
:10427c000080fb00838120000001780011c0b30096
:10428c000e007800ec340700a03207000040eb0071
:10429c00004f780010c3b300104798001ac8bf0035
:1042ac000080fb00838120000001780021c0b30056
:1042bc000e007800c7340700943207001ac8bf00fc
:1042cc000080fb00838120000001780011c0b30046
:1042dc000e007800d83407008c3207000040eb0049
:1042ec00004f780010c3b300104798001ac8bf00e5
:1042fc000080fb00838120000001780021c0b30006
:10430c000e007800b3340700803207001ac8bf00d3
:10431c000080fb00838120000001780011c0b300f5
:10432c000e007800c4340700783207000040eb0020
:10433c00004f780010c3b300104798001ac8bf0094
:10434c000080fb00838120000001780021c0b300b5
:10435c000e0078009f3407006c3207001ac8bf00ab
:10436c000080fb00838120000001780011c0b300a5
:10437c000e007800b0340700643207000040eb00f8
:10438c00004f780010c3b300104798001ac8bf0044
:10439c000080fb00838120000001780021c0b30065
:1043ac000e0078008b340700583207001ac8bf0083
:1043bc000080fb00838120000001780011c0b30055
:1043cc000e0078009c340700503207000040eb00d0
:1043dc00004f780010c3b300104798001ac8bf00f4
:1043ec000080fb00838120000001780021c0b30015
:1043fc000e00780077340700443207001ac8bf005b
:10440c000080fb00838120000001780011c0b30004
:10441c000e007800883407003c3207000040eb00a7
:10442c00004f780010c3b300104798001ac8bf00a3
:10443c000080fb00838120000001780021c0b300c4
:10444c000e00780063340700303207001ac8bf0032
:10445c000080fb00838120000001780011c0b300b4
:10446c000e00780074340700283207000040eb007f
:10447c00004f780010c3b300104798001ac8bf0053
:10448c000080fb00838120000001780021c0b30074
:10449c000e0078004f3407001c3207001ac8bf000a
:1044ac000080fb00838120000001780011c0b30064
:1044bc000e00780060340700143207000040eb0057
:1044cc00004f780010c3b300104798001ac8bf0003
:1044dc000080fb00838120000001780021c0b30024
:1044ec000e0078003b340700083207001ac8bf00e2
:1044fc000080fb00838120000001780011c0b30014
:10450c000e0078004c340700003207000040eb002e
:10451c00004f780010c3b300104798001ac8bf00b2
:10452c000080fb00838120000001780021c0b300d3
:10453c000e00780027340700f43107001ac8bf00ba
:10454c000080fb00838120000001780011c0b300c3
:10455c000e00780038340700ec3107000040eb0007
:10456c00004f780010c3b300104798001ac8bf0062
:10457c000080fb00838120000001780021c0b30083
:10458c000e00780013340700e03107001ac8bf0092
:10459c000080fb00838120000001780011c0b30073
:1045ac000e00780024340700d83107000040eb00df
:1045bc00004f780010c3b300104798001ac8bf0012
:1045cc000080fb00838120000001780021c0b30033
:1045dc000e007800ff330700cc3107001ac8bf006b
:1045ec000080fb00838120000001780011c0b30023
:1045fc000e00780010340700c43107000040eb00b7
:10460c00004f780010c3b300104798001ac8bf00c1
:10461c000080fb00838120000001780021c0b300e2
:10462c000e007800eb330700b83107001ac8bf0042
:10463c000080fb00838120000001780011c0b300d2
:10464c000e007800fc330700b03107000040eb008f
:10465c00004f780010c3b300104798001ac8bf0071
:10466c000080fb00838120000001780021c0b30092
:10467c000e007800d7330700a43107001ac8bf001a
:10468c000080fb00838120000001780011c0b30082
:10469c000e007800e83307009c3107000040eb0067
:1046ac00004f780010c3b300104798001ac8bf0021
:1046bc000080fb00838120000001780021c0b30042
:1046cc000e007800c3330700903107001ac8bf00f2
:1046dc000080fb00838120000001780011c0b30032
:1046ec000e007800d4330700883107000040eb003f
:1046fc00004f780010c3b300104798001ac8bf00d1
:10470c000080fb00838120000001780021c0b300f1
:10471c000e007800af3307007c3107001ac8bf00c9
:10472c000080fb00838120000001780011c0b300e1
:10473c000e007800c0330700743107000040eb0016
:10474c00004f780010c3b300104798001ac8bf0080
:10475c000080fb00838120000001780021c0b300a1
:10476c000e0078009b330700683107001ac8bf00a1
:10477c000080fb00838120000001780011c0b30091
:10478c000e007800ac330700603107000040eb00ee
:10479c00004f780010c3b300104798001ac8bf0030
:1047ac000080fb00838120000001780021c0b30051
:1047bc000e00780087330700543107001ac8bf0079
:1047cc000080fb00838120000001780011c0b30041
:1047dc000e007800983307004c3107000040eb00c6
:1047ec00004f780010c3b300104798001ac8bf00e0
:1047fc000080fb00838120000001780021c0b30001
:10480c000e00780073330700403107001ac8bf0050
:10481c000080fb00838120000001780011c0b300f0
:10482c000e00780084330700383107000040eb009d
:10483c00004f780010c3b300104798001ac8bf008f
:10484c000080fb00838120000001780021c0b300b0
:10485c000e0078005f3307002c3107001ac8bf0028
:10486c000080fb00838120000001780011c0b300a0
:10487c000e00780070330700243107000040eb0075
:10488c00004f780010c3b300104798001ac8bf003f
:10489c000080fb00838120000001780021c0b30060
:1048ac000e0078004b330700183107001ac8bf0000
:1048bc000080fb00838120000001780011c0b30050
:1048cc000e0078005c330700103107000040eb004d
:1048dc00004f780010c3b300104798001ac8bf00ef
:1048ec000080fb00838120000001780021c0b30010
:1048fc000e00780037330700043107001ac8bf00d8
:10490c000080fb00838120000001780011c0b300ff
:10491c000e00780048330700fc3007000040eb0025
:10492c00004f780010c3b300104798001ac8bf009e
:10493c000080fb00838120000001780021c0b300bf
:10494c000e00780023330700f03007001ac8bf00b0
:10495c000080fb00838120000001780011c0b300af
:10496c000e00780034330700e83007000040eb00fd
:10497c00004f780010c3b300104798001ac8bf004e
:10498c000080fb00838120000001780021c0b3006f
:10499c000e0078000f330700dc3007001ac8bf0088
:1049ac000080fb00838120000001780011c0b3005f
:1049bc000e00780020330700d43007000040eb00d5
:1049cc00004f780010c3b300104798001ac8bf00fe
:1049dc000080fb00838120000001780021c0b3001f
:1049ec000e007800fb320700c83007001ac8bf0061
:1049fc000080fb00838120000001780011c0b3000f
:104a0c000e0078000c330700c03007000040eb00ac
:104a1c00004f780010c3b300104798001ac8bf00ad
:104a2c000080fb00838120000001780021c0b300ce
:104a3c000e007800e7320700b43007001ac8bf0038
:104a4c000080fb00838120000001780011c0b300be
:104a5c000e007800f8320700ac3007000040eb0085
:104a6c00004f780010c3b300104798001ac8bf005d
:104a7c000080fb00838120000001780021c0b3007e
:104a8c000e007800d3320700a03007001ac8bf0010
:104a9c000080fb00838120000001780011c0b3006e
:104aac000e007800e4320700983007000040eb005d
:104abc00004f780010c3b300104798001ac8bf000d
:104acc000080fb00838120000001780021c0b3002e
:104adc000e007800bf3207008c3007001ac8bf00e8
:104aec000080fb00838120000001780011c0b3001e
:104afc000e007800d0320700843007000040eb0035
:104b0c00004f780010c3b300104798001ac8bf00bc
:104b1c000080fb00838120000001780021c0b300dd
:104b2c000e007800ab320700783007001ac8bf00bf
:104b3c000080fb00838120000001780011c0b300cd
:104b4c000e007800bc320700703007000040eb000c
:104b5c00004f780010c3b300104798001ac8bf006c
:104b6c000080fb00838120000001780021c0b3008d
:104b7c000e00780097320700643007001ac8bf0097
:104b8c000080fb00838120000001780011c0b3007d
:104b9c000e007800a83207005c3007000040eb00e4
:104bac00004f780010c3b300104798001ac8bf001c
:104bbc000080fb00838120000001780021c0b3003d
:104bcc000e00780083320700503007001ac8bf006f
:104bdc000080fb00838120000001780011c0b3002d
:104bec000e00780094320700483007000040eb00bc
:104bfc00004f780010c3b300104798001ac8bf00cc
:104c0c000080fb00838120000001780021c0b300ec
:104c1c000e0078006f3207003c3007001ac8bf0046
:104c2c000080fb00838120000001780011c0b300dc
:104c3c000e00780080320700343007000040eb0093
:104c4c00004f780010c3b300104798001ac8bf007b
:104c5c000080fb00838120000001780021c0b3009c
:104c6c000e0078005b320700283007001ac8bf001e
:104c7c000080fb00838120000001780011c0b3008c
:104c8c000e0078006c320700203007000040eb006b
:104c9c00004f780010c3b300104798001ac8bf002b
:104cac000080fb00838120000001780021c0b3004c
:104cbc000e00780047320700143007001ac8bf00f6
:104ccc000080fb00838120000001780011c0b3003c
:104cdc000e007800583207000c3007000040eb0043
:104cec00004f780010c3b300104798001ac8bf00db
:104cfc000080fb00838120000001780021c0b300fc
:104d0c000e00780033320700003007001ac8bf00cd
:104d1c000080fb00838120000001780011c0b300eb
:104d2c000e00780044320700f82f07000040eb001b
:104d3c00004f780010c3b300104798001ac8bf008a
:104d4c000080fb00838120000001780021c0b300ab
:104d5c000e0078001f320700ec2f07001ac8bf00a6
:104d6c000080fb00838120000001780011c0b3009b
:104d7c000e00780030320700e42f07000040eb00f3
:104d8c00004f780010c3b300104798001ac8bf003a
:104d9c000080fb00838120000001780021c0b3005b
:104dac000e0078000b320700d82f07001ac8bf007e
:104dbc000080fb00838120000001780011c0b3004b
:104dcc000e0078001c320700d02f07000040eb00cb
:104ddc00004f780010c3b300104798001ac8bf00ea
:104dec000080fb00838120000001780021c0b3000b
:104dfc000e007800f7310700c42f07001ac8bf0057
:104e0c000080fb00838120000001780011c0b300fa
:104e1c000e00780008320700bc2f07000040eb00a2
:104e2c00004f780010c3b300104798001ac8bf0099
:104e3c000080fb00838120000001780021c0b300ba
:104e4c000e007800e3310700b02f07001ac8bf002e
:104e5c000080fb00838120000001780011c0b300aa
:104e6c000e007800f4310700a82f07000040eb007b
:104e7c00004f780010c3b300104798001ac8bf0049
:104e8c000080fb00838120000001780021c0b3006a
:104e9c000e007800cf3107009c2f07001ac8bf0006
:104eac000080fb00838120000001780011c0b3005a
:104ebc000e007800e0310700942f07000040eb0053
:104ecc00004f780010c3b300104798001ac8bf00f9
:104edc000080fb00838120000001780021c0b3001a
:104eec000e007800bb310700882f07001ac8bf00de
:104efc000080fb00838120000001780011c0b3000a
:104f0c000e007800cc310700802f07000040eb002a
:104f1c00004f780010c3b300104798001ac8bf00a8
:104f2c000080fb00838120000001780021c0b300c9
:104f3c000e007800a7310700742f07001ac8bf00b5
:104f4c000080fb00838120000001780011c0b300b9
:104f5c000e007800b83107006c2f07000040eb0002
:104f6c00004f780010c3b300104798001ac8bf0058
:104f7c000080fb00838120000001780021c0b30079
:104f8c000e00780093310700602f07001ac8bf008d
:104f9c000080fb00838120000001780011c0b30069
:104fac000e007800a4310700582f07000040eb00da
:104fbc00004f780010c3b300104798001ac8bf0008
:104fcc000080fb00838120000001780021c0b30029
:104fdc000e0078007f3107004c2f07001ac8bf0065
:104fec000080fb00838120000001780011c0b30019
:104ffc000e00780090310700442f07000040eb00b2
:10500c00004f780010c3b300104798001ac8bf00b7
:10501c000080fb00838120000001780021c0b300d8
:10502c000e0078006b310700382f07001ac8bf003c
:10503c000080fb00838120000001780011c0b300c8
:10504c000e0078007c310700302f07000040eb0089
:10505c00004f780010c3b300104798001ac8bf0067
:10506c000080fb00838120000001780021c0b30088
:10507c000e00780057310700242f07001ac8bf0014
:10508c000080fb00838120000001780011c0b30078
:10509c000e007800683107001c2f07000040eb0061
:1050ac00004f780010c3b300104798001ac8bf0017
:1050bc000080fb00838120000001780021c0b30038
:1050cc000e00780043310700102f07001ac8bf00ec
:1050dc000080fb00838120000001780011c0b30028
:1050ec000e00780054310700082f07000040eb0039
:1050fc00004f780010c3b300104798001ac8bf00c7
:10510c000080fb00838120000001780021c0b300e7
:10511c000e0078002f310700fc2e07001ac8bf00c4
:10512c000080fb00838120000001780011c0b300d7
:10513c000e00780040310700f42e07000040eb0011
:10514c00004f780010c3b300104798001ac8bf0076
:10515c000080fb00838120000001780021c0b30097
:10516c000e0078001b310700e82e07001ac8bf009c
:10517c000080fb00838120000001780011c0b30087
:10518c000e0078002c310700e02e07000040eb00e9
:10519c00004f780010c3b300104798001ac8bf0026
:1051ac000080fb00838120000001780021c0b30047
:1051bc000e00780007310700d42e07001ac8bf0074
:1051cc000080fb00838120000001780011c0b30037
:1051dc000e00780018310700cc2e07000040eb00c1
:1051ec00004f780010c3b300104798001ac8bf00d6
:1051fc000080fb00838120000001780021c0b300f7
:10520c000e007800f3300700c02e07001ac8bf004c
:10521c000080fb00838120000001780011c0b300e6
:10522c000e00780004310700b82e07000040eb0098
:10523c00004f780010c3b300104798001ac8bf0085
:10524c000080fb00838120000001780021c0b300a6
:10525c000e007800df300700ac2e07001ac8bf0024
:10526c000080fb00838120000001780011c0b30096
:10527c000e007800f0300700a42e07000040eb0071
:10528c00004f780010c3b300104798001ac8bf0035
:10529c000080fb00838120000001780021c0b30056
:1052ac000e007800cb300700982e07001ac8bf00fc
:1052bc000080fb00838120000001780011c0b30046
:1052cc000e007800dc300700902e07000040eb0049
:1052dc00004f780010c3b300104798001ac8bf00e5
:1052ec000080fb00838120000001780021c0b30006
:1052fc000e007800b7300700842e07001ac8bf00d4
:10530c000080fb00838120000001780011c0b300f5
:10531c000e007800c83007007c2e07000040eb0020
:10532c00004f780010c3b300104798001ac8bf0094
:10533c000080fb00838120000001780021c0b300b5
:10534c000e007800a3300700702e07001ac8bf00ab
:10535c000080fb00838120000001780011c0b300a5
:10536c000e007800b4300700682e07000040eb00f8
:10537c00004f780010c3b300104798001ac8bf0044
:10538c000080fb00838120000001780021c0b30065
:10539c000e0078008f3007005c2e07001ac8bf0083
:1053ac000080fb00838120000001780011c0b30055
:1053bc000e007800a0300700542e07000040eb00d0
:1053cc00004f780010c3b300104798001ac8bf00f4
:1053dc000080fb00838120000001780021c0b30015
:1053ec000e0078007b300700482e07001ac8bf005b
:1053fc000080fb00838120000001780011c0b30005
:10540c000e0078008c300700402e07000040eb00a7
:10541c00004f780010c3b300104798001ac8bf00a3
:10542c000080fb00838120000001780021c0b300c4
:10543c000e00780067300700342e07001ac8bf0032
:10544c000080fb00838120000001780011c0b300b4
:10545c000e007800783007002c2e07000040eb007f
:10546c00004f780010c3b300104798001ac8bf0053
:10547c000080fb00838120000001780021c0b30074
:10548c000e00780053300700202e07001ac8bf000a
:10549c000080fb00838120000001780011c0b30064
:1054ac000e00780064300700182e07000040eb0057
:1054bc00004f780010c3b300104798001ac8bf0003
:1054cc000080fb00838120000001780021c0b30024
:1054dc000e0078003f3007000c2e07001ac8bf00e2
:1054ec000080fb00838120000001780011c0b30014
:1054fc000e00780050300700042e07000040eb002f
:10550c00004f780010c3b300104798001ac8bf00b2
:10551c000080fb00838120000001780021c0b300d3
:10552c000e0078002b300700f82d07001ac8bf00ba
:10553c000080fb00838120000001780011c0b300c3
:10554c000e0078003c300700f02d07000040eb0007
:10555c00004f780010c3b300104798001ac8bf0062
:10556c000080fb00838120000001780021c0b30083
:10557c000e00780017300700e42d07001ac8bf0092
:10558c000080fb00838120000001780011c0b30073
:10559c000e00780028300700dc2d07000040eb00df
:1055ac00004f780010c3b300104798001ac8bf0012
:1055bc000080fb00838120000001780021c0b30033
:1055cc000e00780003300700d02d07001ac8bf006a
:1055dc000080fb00838120000001780011c0b30023
:1055ec000e00780014300700c82d07000040eb00b7
:1055fc00004f780010c3b300104798001ac8bf00c2
:10560c000080fb00838120000001780021c0b300e2
:10561c000e007800ef2f0700bc2d07001ac8bf0042
:10562c000080fb00838120000001780011c0b300d2
:10563c000e00780000300700b42d07000040eb008e
